:100E35007580FFC2A5D2A6C2A700D2A7E58033223E
:100DF100120E3540FBC2A5C2A6D2A78F8000C2A7A2
:010E010022CE
:100E0200120E3540FBD2A5C2A6D2A78F8000C2A780
:010E120022BD
:0A0E55007F01120DF17F05020DA4CC
:100D1200AE07ED7005EE24808003EE24C0FF120DB5
:100D2200F1120502FF600C120E02740129F9E43A75
:040D3200FA80EE2233
:100C77007F38120DF17F05120DA47F38120DF17F19
:100C870005120DA47F38120DF17F05120DA47F38D0
:100C9700120DF17F08120DF17F01120DF17F06127F
:0B0CA7000DF11F120DA47F0C020DF1D7
:100D580020202025352E3166204D487A002020207D
:0E0D6800464D205445413537363720202000B7
:100DDF00053E3050701680045500018AEC02538A8C
:010DEF00EC17
:0B0D8F00D2917F04120D9AD2907F04D5
:0A0D9A00EFD3940040031F80F722FE
:100E1300120D8FC2917F04120D9AC2907F04020DAE
:010E23009A34
:100DB900C2907F04120D9AC291120D91D2917F04B3
:030DC900020D9A7E
:100DCC00C291120D91C2907F04120D9AD2917F04A0
:030DDC00020D9A6B
:100E2400120D8FA29192007F04120D9AC290A2001B
:010E3400229B
:020D7600AE07C6
:100D78007D08EE339291120D91C2907F04120D9A64
:060D8800EE25E0FEDDECAB
:010D8E002242
:0F0E4500EFD394004009E4FE0EBEFAFC1F80F1CB
:010E5400227B
:100D3600120E137FC0120D76120E244012E4FC74BC
:100D46003E2CF8E6FF120D76120DCC0CBC05F00217
:020D56000DB9D5
:100CB200E55824E1FFE43557FEE43556FDE43555A9
:100CC200FCE41200A37B6F7A1279037841120006CA
:100CD2001200E18E538F54E553F53E8F3F754070FD
:090CE200754116754280020D36C1
:100C2D00E47B64FAF9F8AF58AE57AD56AC551205E2
:010C3D009620
:100C3E007525FF75260D752758AD07AC06E4120015
:100C4E00A8E4FBFA792078411200068F2B8E2A8DAC
:100C5E00298C287B007A0079431206D97B007A0012
:090C6E0079437D01E4FF020D123F
:100AEC00120C777F14120DA4120E557BFF7A0D7920
:100AFC0065E4FDFF120D12120CB2120D3620B34438
:100B0C007FFA120E4520B33CE5582464F558E435C1
:100B1C0057F557E43556F556E43555F5557FD47EE3
:100B2C00A77D017C00AB58AA57A956F8D3120636FC
:100B3C00400C7558CC755755755601755500120CEF
:100B4C00B2120C2D20B4B67FFA120E4520B440C35D
:100B5C00E5589464F558E5579400F557E55694001C
:100B6C00F556E5559400F5557FCC7E557D017C00FE
:100B7C00AB58AA57A956F8C3120636500C7558D460
:100B8C007557A7755601755500120CB2120C2D1223
:050B9C000C2D020B0905
:030E5F00DFFE2291
:100DA400AE07AF061EEF600C7FF5120E5F7FF512E3
:050DB4000E5F80EE223D
:10000300020157EC5D046005E85904700302014DD9
:10001300120118580460F6EC4860F2EC7004FDFE1F
:10002300FF22C860DB2481C85009C39860025006D0
:100033000201549850CAF582E9294B4A7005AB82F4
:1000430002014375F0007C1A7880C3EF9BEE9AEDB2
:1000530099400DC3EF9BFFEE9AFEED99FDE842F048
:10006300DC23ACF0D0E0FFD0E0FED0E0FDAB82209B
:10007300E7101BEB60BAEC2CFCEF33FFEE33FEED25
:1000830033FD02012FE803F830E705C0F075F000F7
:10009300EF2FFFEE33FEED33FD40B830E7C280AA09
:1000A30075F020800E75F010800575F0087D007ED8
:1000B300007F003392D530D503120628EC3340106D
:1000C300EF33FFEE33FEED33FDEC33FCD5F0ED22E1
:0E00D300E5F0247EA2D513CC92E7CDCEFF221D
:1000E100EDD2E7CD33EC3392D524814006E4FFFE17
:1000F100FDFC22FCE4CFCECDCC24E0501174FF8076
:10010100EDC3CC13CCCD13CDCE13CECF13CF047012
:07011100F030D5DE020628E4
:10067D00E5392425F8E60539227822300702782558
:10068D00E475F0011206470205022000EB7F2ED221
:10069D00008018EF540F2490D43440D4FF30040B55
:1006AD00EF24BFB41A0050032461FFE53A60021530
:1006BD003A053DE53D7002053C30070D7822E475A5
:1006CD00F001120647EF020548020CEB7403D20746
:1006DD008003E4C207F5398B228A238924E4F53A95
:1006ED00F53CF53DE53A60077F201206B880F575BB
:1006FD003BFFC201C200C202C203C205C206C2084C
:10070D00120686FF700D3007057F001206C9AF3D3A
:10071D00AE3C22B4255FC2D5C204120686FF24D09A
:10072D00B40A00501A75F00A783A30D50508B6FFAC
:10073D000106C6A426F620D5047002D20380D92462
:10074D00CFB41A00EF5004C2E5D2040209B6D201AB
:10075D0080C6D20080C0D20280BCD2D580BAD2056C
:10076D0080B47F201206B82002077401B53A00400C
:10077D00F112067DFF1206B80206F1D208D20680EC
:10078D009512067DFB12067DFA12067DF94A4B7015
:10079D000679AD7A0A7BFF20022EE53A602A7E00AB
:1007AD008E8275830012051B60060EEE653B70F0A0
:1007BD00C2D5EBC0E0EAC0E0E9C0E0EE120A16D007
:1007CD00E0F9D0E0FAD0E0FB120502FF60AAEBC021
:1007DD00E0EAC0E0E9C0E01206B8D0E02401F9D0AB
:1007ED00E03400FAD0E0FBE53B0460DCD53BD9807A
:1007FD0087D20280A21209F960F7E53B700104125D
:10080D000162A93B600DE53B600914F53B120AA09E
:10081D00EF60F3EA30E702F404C3995077EAF42568
:10082D003B0430E701E404F53B800D1209F960C18A
:10083D00EA053B253B120162EA7838F630E701E420
:10084D00253B04D53B0420050114120A16E4C0E033
:10085D00120AA07838E6601320E70714F61206A0F6
:10086D00802204F6D0E014C0E07F001206A0E53B24
:10087D006007120697153B800B300503120697D0C3
:10088D00E00206F1D0E00480C51209F960A0E53B55
:10089D00041201627838EAF6E53B20050260010496
:0508AD002404120A16EC
:1008B20074FF04C0E0120AA01206A0E53B20050264
:1008C2006003120697D0E0B53BE87F451206AA788E
:1008D20038E67F2B30E7047F2DF404C0E01206B81F
:1008E200D0E075F00A84C0F01206A1D0E01206A191
:1008F2000206F1791080027908C206C2088008D285
:10090200D5790A8004790AC2D5E53B047002F53B29
:10091200E4FAFDFEFF12067DFC7B0820011312069D
:100922007DFD7B1030000A12067DFE12067DFF7BE4
:1009320020EC3382D592D55013C3E43000069FFFDA
:10094200E49EFEE42001039DFDE49CFCE4CBF8C29E
:1009520001EC700CCFCECDCCE824F8F870F3801700
:10096200C3EF33FFEE33FEED33FDEC33FCEB33FB31
:10097200994002FB0FD8E9EB300105F8D0E0C448FA
:10098200B201C0E00AEC4D4E4F78207B0070C2EA03
:10099200B53B0040BCC0E0120A18D0F0D0E0200104
:1009A20004C4C0E0C4B201C0F01206A1D0F0D5F078
:1009B200EB0206F1120657078E5308F558075F4CF3
:1009C200075B4208F94F09014409014907744309C9
:1009D20007550838460896450802470ACD5007636E
:1009E2002D07672E078A2B076B230788200AB62A52
:1009F20007234800000782E53BB4FF03753B06125C
:100A0200067DFC12067DFD12067DFE12067DFF7834
:100A120031020191790AA2D5200314300509B910D7
:100A2200020404B9080104A2D520060250010420E0
:100A320002689202B53A005034C0E07F20300319B8
:100A42007F30A20272067205500F120A6FC202C2F2
:100A520006C205C2087F30800F300503E9C0E012EC
:100A620006B8300503D0E0F9D0E0B53ACC3005172E
:100A72007F30B9100C1206B87F583004077F788097
:100A820003B908031206B83002057F2D0206B87FAB
:100A9200202008F87F2B2006F322920280CF7F00CD
:100AA200B4070050052431F8E6FF22286E756C6CFD
:100AB2002900D20112067D3001F8C201783A30D500
:100AC2000108F60207232D5043495812067D2403DC
:100AD200B405004001E4900AC8931206A9743A12C0
:0A0AE20006A9D203753A040208F5D4
:10011800E9D2E7C933E833F892D5EDD2E7CD33EC2D
:0701280033FC5002B2D522A6
:10012F00EC30E7100FBF000C0EBE00080DBD000431
:10013F000BEB6014A2D5EB13FCED92E7FD2274FFDD
:10014F00FCFDFEFF22E480F8A2D574FF13FC7D8036
:03015F00E480EF4A
:10016200F920E72824F950037907E4F42402FB1864
:10017200DBFDE624FB5014E9600DE4F618E604F614
:0F018200B40A08E4F6D9F57401F60A22C2D522B0
:10019100ED33EC3392D5FA602AB4FF33EDC2E77B3D
:1001A100FF60067A0179B6E4227A0179BF20D5048D
:1001B1007A0179BA224E614E002B494E46002D49F3
:1001C1004E4600E47A08F608DAFC7B00740722E860
:1001D100C0E0ECC0E0EDC0E0EEC0E0EFC0E0EA75E9
:1001E100F010A4CAABF075F04DA42BFBE435F0FC84
:1001F100EA2410FAEB34C5FBEC34D9FCEDC2E7FF7D
:1002010075F056A4F42411C5F0F434C58FF0A42A76
:10021100E5F03BE43CF620E7141204C2D0E0FFD045
:10022100E0FED0E0FDD0E0FC1200068014F40412E0
:1002310004C2D0E0FFD0E0FED0E0FDD0E0FC12032C
:100241008CD0E0F8E6FAEDD2E7CD33EC332482FB33
:10025100E4C3CF33CFCE33CECD33CD33DBF37B0706
:1002610075F00A846004F6081B0AE5F0F6088FF0C1
:10027100740AA4FFACF08EF0740AA42CFEACF0500A
:10028100010C8DF0740AA42CFDE435F0F608DBDED8
:03029100740722CD
:1002940002014DE86480F8E933E83360110460F04A
:1002A400ED33EC337009E8FCE9FDEAFEEBFF2204D0
:1002B40060DED3EB9FEA9EE99DE8C2E78CF0C2F7CB
:1002C40095F0400CE8CCF8E9CDF9EACEFAEBCFFB97
:1002D40012011885D0F05804700320D5B3E80470D7
:1002E400075002B2D502015792D5EC0460F7E4CC72
:1002F400C0E0C398F8603B94186008400DD0E0FB60
:1003040002012FE4FBFAC9FC8028E830E406E4C9C2
:10031400FBE4CAFCE830E305E4C9CACBFCE85407B3
:100324006010F8C3E913F9EA13FAEB13FBEC13FCBE
:10033400D8F130F52FC3E49CFCEF9BFFEE9AFEED61
:1003440099FDD0E0FBEF4E4D4C701222DB0302010D
:1003540054EC2CFCEF33FFEE33FEED33FDED30E7D0
:10036400EB02012FEF2BFFEE3AFEED39FDD0E0FB5F
:1003740050130BBB0003020157ED13FDEE13FEEF08
:0803840013FFEC13FC02012F32
:10038C00EC4D6011E8497017ED33EC3304600DE46B
:10039C00FCFFFEFD22E933E8330470F802014D1234
:1003AC00011858046009E4CC248150062850090235
:1003BC000157284003020154C0E0EB4A7044B98055
:1003CC0006D0E0FB020143EF4E701CBD8008EBFF32
:1003DC00EAFEE9FD80EBE98DF0A4FEE5F002047580
:1003EC00E9CDF9EAFEEBFFEF89F0A4FCE5F0CE894C
:1003FC00F0A42EFFE435F0CD89F0A42DFEE435F009
:10040C008067EF4E7005BD80D780C3EF8BF0A4AC36
:10041C00F0EE8BF0A42CFCE435F0F8EF8AF0A42C71
:10042C00E5F038FCE433CB8DF0A42CFCE5F03BF884
:10043C00EE8AF0A42CFCE5F038F8E433CF89F0A474
:10044C002CFCE5F038CF3400CE89F0A42FFFE5F07A
:10045C003EFEE433C98DF0A42EFEE5F039CD8AF0D2
:10046C00A42FFFE5F03EFEE43DFD33D0E0FB50074A
:10047C000BBB000F020157EC2CFCEF33FFEE33FEED
:06048C00ED33FD02012F1B
:100492003F8000004120000042C80000447A000072
:1004A200461C400047C35000497424004B189680F4
:1004B2004CBEBC205A0E1BCA6753C21C749DC5AEEB
:1004C200FB60065407601C23231204F0EB543860CF
:1004D200091204DC1204EB12038CECF8EDF9EEFACB
:1004E200EFCB22EB1204EB80F1543803241C90046E
:1004F20092FE93FC0EEE93FD0EEE930ECE93FF2230
:03000000020BA14F
:0C0BA100787FE4F6D8FD758158020BE85F
:10050200BB010689828A83E0225002E722BBFE02F7
:09051200E32289828A83E493222A
:10051B00BB010CE58229F582E5833AF583E0225095
:10052B0006E92582F8E622BBFE06E92582F8E222DF
:0D053B00E58229F582E5833AF583E49322F9
:10054800BB010689828A83F0225002F722BBFE0192
:02055800F3228C
:10055A0075F008758200EF2FFFEE33FECD33CDCC58
:10056A0033CCC58233C5829BED9AEC99E5829840DB
:10057A000CF582EE9BFEED9AFDEC99FC0FD5F0D6B8
:10058A00E4CEFBE4CDFAE4CCF9A88222B800C1B9E2
:10059A000059BA002DEC8BF084CFCECDFCE5F0CB20
:1005AA00F97818EF2FFFEE33FEED33FDEC33FCEB59
:1005BA0033FB10D703994004EB99FB0FD8E5E4F914
:1005CA00FA227818EF2FFFEE33FEED33FDEC33FC01
:1005DA00C933C910D7059BE99A4007EC9BFCE99AF5
:1005EA00F90FD8E0E4C9FAE4CCFB2275F010EF2F3A
:1005FA00FFEE33FEED33FDCC33CCC833C810D7073A
:10060A009BEC9AE899400AED9BFDEC9AFCE899F874
:0E061A000FD5F0DAE4CDFBE4CCFAE4C8F92207
:0E062800C3E49FFFE49EFEE49DFDE49CFC22E3
:10063600EB9FF5F0EA9E42F0E99D42F0E89C45F01A
:010646002291
:10064700FAE6FB0808E6F925F0F618E6CA3AF622B4
:10065700D083D082F8E4937012740193700DA3A332
:1006670093F8740193F5828883E473740293686046
:06067700EFA3A3A380DF46
:100CEB00EFB40A07740D120CF6740A309811A89918
:100CFB00B8130CC2983098FDA899C298B811F63069
:070D0B0099FDC299F5992240
:100BAD00020AECE493A3F8E493A34003F68001F268
:100BBD0008DFF48029E493A3F85407240CC8C33349
:100BCD00C4540F4420C8834004F456800146F6DF18
:100BDD00E4800B0102040810204080900DDFE47EBC
:100BED00019360BCA3FF543F30E509541FFEE4930D
:100BFD00A360010ECF54C025E060A840B8E493A3D4
:100C0D00FAE493A3F8E493A3C8C582C8CAC583CAFE
:100C1D00F0A3C8C582C8CAC583CADFE9DEE780BEB6
:010DF0000002
:00000001FF
